:0600000032C0FECFEEC08D
:10000600FCCFFBCFFACFCBC0F8CFF7CFF6CFF5CFEB
:10001600F4CFF3CFF2CFF1CFF0CFEFCFEECFEDCFDE
:100026000000553D200052504D20000080C02D4E4E
:10003600414E000001002D4E414E00494E46000043
:100046000200040026000400600128000500640187
:100056002C00020081013200010085013A000000F7
:10006600F894EE27ECBBF1E0FBBFEBBFE5BF8DE0FC
:10007600A2E0BB27ED938A95E9F780E094E0A0E63D
:10008600ED930197E9F7E6E4F0E085919591009705
:1000960061F0A591B59105901590BF01F00105900D
:1000A6000D920197E1F7FB01F0CFEFE5EDBFE4E03C
:1000B600EEBFC0E6D1E09EC0AA93E881E7B98BE126
:1000C6008A95F1F7369A349BFECF349AE4B1F5B1AE
:1000D60021C1E0E0EA93A1E0B7D0A0E6B1E0E3D029
:1000E600E2E0EA93A1E0B0D0A4E620D2A0E0E4DF0B
:1000F60066277727E8D2DF01CB01E6E6F6E66CE471
:1001060072E4B9D3A6E6B6E686E490E466D3E09355
:100116007D01F0937E0160937F01709380014BD443
:10012600E1E0EA93A3E7B1E024D1A3E7B1E0BBD0D5
:100136000895F201ACE3B0E01CD42F01E0E0EA93AD
:10014600A0E082D0A4E6B1E0AED0E4E0EA93A0E07D
:100156007BD05A924A92A9E6B1E0DED0A9E6B1E098
:10016600A2D0442455240895E0E0EFBDE5E0EEBDBD
:10017600DFD1E5E8FEE1FBBDEABDE0E1E9BF0895B8
:10018600EBB7E068EBBFECE0E5BFE0E8EABF089557
:10019600E0E0E7B9E7E8E6B9E0E0E0BF08950A92F3
:1001A6001A92FA926A937A938A939A93AA93BA9333
:1001B600EA93FA93EFB7EA9354D0BBDF8ADFB8D15C
:1001C600E991EFBFF991E991B991A9919991899135
:1001D60079916991F990199009901895EA93FA9393
:1001E600EFB7EA93F20131962F01E991EFBFF9914A
:1001F600E9911895B9DFC4DFCBDFA8E064D031D030
:1002060078949198809902C0919A01C09198FACFFA
:10021600FFCFAA93E8B3E07FAE2FE881E295EF70B7
:10022600EA2BE8BB8AD1979A88D1979886D172C073
:10023600AA93A881EEDFE881E295E883A881E9DF49
:1002460085E88A95F1F766C0AA93E881F0E0EF5752
:10025600FE4FE081A981AE0FEBDFB980A880229620
:100266000895A2E0E5DFA3E061D1ACE0E1DFA1E023
:10027600DFDFA3E05BD1E0E0AE2EBE2E0895AA93A9
:10028600A881AA3011F0BD1440F0E0E0EA93A394EF
:10029600AA2DDADFA881AA30E9F1B394959AA8814C
:1002A600C7DF959837C04DD11A93A981BA81ED91D0
:1002B600A983BA831E2FE03019F0A12FE0DFF5CF16
:1002C600188123960895AA93E7B3EF60E7BB8F9A48
:1002D6008D9A8E9A979895989698D880E881E05846
:1002E600E0938301E881E054E0938401A4E11ED108
:1002F6002BD12AD129D1A0E28CDF88EC90E001979E
:10030600F1F7A8E295DFA4E093DFA5E891DFA6E088
:100316008FDFA7DF2196089514D1A991B991E991AC
:10032600F99130962AF4E095F09531966DE26D9349
:10033600E89480E197E20DD088EE93E00AD084E657
:10034600992707D08AE005D06E2F10D066276C93C8
:1003560008956627E817F90720F06395E81BF90B5F
:10036600C9F7662311F416F008956894605D6D93DD
:100376000895E7D02497E0E0E883E983EA83EFE392
:10038600EB8330D3EB85FC85EF3FAFEFFA0729F41B
:10039600E2D0ACE3B0E07ED07AC0EF3FAFE7FA0739
:1003A60029F4D9D0ADE3B0E075D071C0AC85AA23ED
:1003B60032F4D6D01CD1D9D0DDD0EDE2EC93A885AD
:1003C600A73010F0E6E0E8871885E12F1150E030FD
:1003D60021F0D7D0DBD0E0D0F8CFE3D0AED1C5D076
:1003E60010E0E0E0F0E060E87FE3D6D0DAD088D233
:1003F60060F0C7D0DFD0D0D01F5F173228F0ABD067
:10040600A1E4B0E047D043C0F1CF103021F4B2D020
:10041600E0E3EC931EC0E12F1150E030D1F0B1D0F3
:10042600B5D0A0E0B0E080E09FE387D1DF01CB014B
:100436006DD0B2D0B6D01FD20DD10E2F9BD0C0D06A
:10044600A0D08AD240D1C9D1C1D0BFD26FD18DD070
:10045600E2CFE885E030B9F08DD0EEE2EC93E885A6
:10046600E150E887EF5F79F0B1D0A4D07ED078D0A4
:10047600F1D00E2F7FD0A4D0A9D06ED224D1A5D290
:1004860055D173D0ECCFAE81BF81E0E0EC93ADD215
:100496002D96089556D0E991F991A991B991CD017A
:1004A60005900D920020E1F7FC01089589D27B8129
:1004B6006A81F981E88177FB770F67FD7160972F75
:1004C6009E5781F078F0983190F4AA27BB278827A9
:1004D60008948795B795A7959A95D1F7EA23FB23B4
:1004E600682305C0E8947727EE27FF2766276F77EE
:1004F600769508F4606877F9A991B99189919991EF
:10050600EA17FB076807790797FB089559D249D27E
:10051600CDDF4CD211F45FD007C0EEF75CD0A0E07F
:10052600B0E080E89FE302D124960895B0E055C07C
:10053600E0E0F0E0FDBDECBD08958DE08A95F1F7B1
:100546000895BA93AA930895A0E363DE88EC90E039
:100556000197F1F70895EE81FF81FA93EA930895E2
:10056600E985FA856B857C850895E987FA876B8727
:100576007C870895AE81BF811196AE83BF831197A4
:100586000895AA81BB818C819D810895EDECFCECD8
:100596006CEC7DE322D10895EA83FB836C837D8333
:1005A6000895EA81FB816C817D81A985BA858B8559
:1005B6009C850895E0E0F0E060E271E40ED10895D4
:1005C600E02FE05DEC93E02FF0E00895A985BA8571
:1005D6008B859C850895E0D10895109639F080EDBD
:1005E60097E00197F1F7A8951197C9F70895309705
:1005F6006040704009F070580895552342F4503811
:1006060011F4E0FF04C03196691F791F6BF050E8C2
:10061600572711F45F93CFC05F3F31F0660F000C90
:1006260057956795752F08955F9300200AF0CFC000
:10063600C8C050E8192E1522880F991F9527550F07
:10064600879550E8072E0522660F771F7527550FE9
:1006560067950895689401C0E8945F93F2DF703857
:1006660018F07F3F08F4A7C056E1571BAAF451952E
:1006760058300EF4593030F0EFEFFFEF6FEF7FE7B1
:1006860077F91AC077275523B9F0EE0FFF1F661FBB
:10069600771F5A95D1F710C07727583028F0EF2FDB
:1006A600F62F672F5850F9CF552331F07695679579
:1006B600F795E7955A95D1F700200AF445D15F9151
:1006C6000895689401C0E894309760407040B1F096
:1006D600002426F0772312F4009436D1172E7EE1FB
:1006E600112032F07A95EE0FFF1F661F111CF9CF0D
:1006F600EF2FF62F612D5F938ADF5F9108954F9359
:10070600AF01FD01DA01AB01BC01CA01402D012C8C
:10071600142E4F910895EA0FFB1F681F0895E09568
:10072600F0956095EF5FFF4F6F4F08955F9381DF00
:10073600903871F150E8152604C05F937ADF90383F
:1007460039F1703821F1572F591B2BF112F4D7DFED
:10075600FACF583118F0AA27BB278827583028F037
:10076600AB2FB82F88275850F9CF552329F08695F7
:10077600B795A7955A95D9F7502D512572F0CBDF2D
:1007860038F46795F795E795739513F420C0B7DFAE
:100796003EDF5F910895D8F7FBCFEA1BFB0B680B92
:1007A60051F010F40094BBDF662392F3EE0FFF1FA7
:1007B600661F7A95CBF7EE27FF27662777275F9187
:1007C6000895EFEFFFEF6FE77FEF5F910895EFEF8B
:1007D600FFEF6FE77FE75F9108955F932ADF703839
:1007E60051F3903841F301240894791F23F41CF344
:1007F60000203AF3ECCF0F921F932F933F934F9322
:10080600112722279927689FA0018F9F302D410D20
:10081600591F6B9F300D411D591F8E9F27D0BF9FBB
:1008260025D06A9F23D0BE9F1DD0AF9F1BD0AE9F01
:10083600110D291F391F491F591FE32FF42F652F4B
:10084600522F4F913F912F911F910F9066232AF0BF
:10085600550FEE1FFF1F661F02C073954BF2CDDECC
:100866005F910895100D211D391F02C0200D311D05
:10087600491F591F08955F93DCDE703821F411205B
:100886000AF49FCFA4CF903809F495CF0124089499
:10089600970B1BF4D4F30020F3CF792F1F932F93DC
:1008A6003F934F9311241127222733274427552797
:1008B60090E2AE17BF078607410730F0AE1BBF0BAD
:1008C600860B410B089401C08894551F221F331FC5
:1008D600111CAA1FBB1F881F441F9A9551F7F901C7
:1008E600612D4F913F912F911F91662332F0550F45
:1008F600EE1FFF1F661F7A9543F27FDE5F91089514
:1009060099239AF0772342F0971748F029F4AE1707
:10091600BF07860720F031F098948894089598943C
:10092600089408951894889408957723C2F7971722
:1009360098F3A9F7EA17FB07680788F399F3ECCF52
:10094600F195E195F0400895F09560957095E195E3
:10095600FF4F6F4F7F4F08956F2F660F660B762FF1
:100966000895FA9FF02DEB9FF00DEA9FE02DF10D13
:10097600089504D0F6DF0EF4E3DF0895E894F7FF58
:1009860002C0DEDF6894B7FF06C0A095B095119649
:1009960000F8039400FA0895E881F9816A817B8161
:1009A6000895A881B9818A819B810895E883F98396
:1009B6006A837B8308957A936A93FA93EA930895F8
:1009C6009A938A93BA93AA930895182E862F612D27
:1009D600192E972F712D1B2EBF2FF12D1A2EAE2FEC
:1009E600E12D08951A930A930895198108810895AF
:00000001FF
